:020000020000FC
:02000000B3C08B
:100020000F930AB3006F0ABB0BB30F70107F012B45
:100030000BBBDB9A000000000000DB980AB30F70D6
:100040000ABB0F9108950F931F930AB3006F0ABB69
:100050000BB30170107F012B0BBBD99ADB9A000008
:1000600000000000DB981F910F701295107F012B8C
:100070000BBBD99ADB9A000000000000DB98D998EE
:100080000AB30F700ABB0F9108950F931F930AB321
:10009000006F0ABB0BB30170107F012B0BBBDB9A07
:1000A000000000000000DB981F910F701295107F78
:1000B000012B0BBBDB9A000000000000DB980AB3A9
:1000C0000F700ABB0F9108950F930AB30F700ABB0C
:1000D000D99ADA9ADB9A000009B3007F202FDB98C7
:1000E00000000000DB9A000009B3007F0295202B7E
:1000F000DB98D998DA980F9108950F930AB30F708F
:100100000ABBD998DA9ADB9A000009B3007F202F46
:10011000DB9800000000DB9A000009B3007F029525
:10012000202BDB98DA980F910895E7DF2078E9F724
:100130000895222433243A94F1F72A94D9F70895A4
:100140000F930EE00ABBF5DF18E06ADFEEDF18E27E
:100150009CDFEBDF1CE099DFE8DF16E096DF11E0C3
:1001600094DFE3DF0F9108950FE50DBF04E00EBFAC
:10017000E7DFDBDFEF93FF93EEEDF1E01491112366
:1001800021F061DFD2DF3196F9CFFF91EF91EF934C
:10019000FF93EAE0F2E01491112321F054DFC5DF70
:1001A0003196F9CFFF91EF91EF93FF93E4EFF1E0F8
:1001B0001491112321F047DFB8DF3196F9CFFF9179
:1001C000EF91EF93FF93E0E2F2E01491112321F01D
:1001D0003ADFABDF3196F9CFFF91EF91FFCF2A2ABB
:1001E0002A20457273746520205A65696C65202A3F
:1001F0002A2A00002A2A2A205A7765697465205A1B
:1002000065696C65202A2A2A00002A2A2A2044725D
:1002100069747465205A65696C65202A2A2A000071
:100220002A2A2A20566965727465205A65696C65A8
:06023000202A2A2A00002A
:00000001FF
